{
  "contractName": "Airline",
  "abi": [
    {
      "constant": true,
      "inputs": [
        {
          "name": "",
          "type": "uint256"
        }
      ],
      "name": "flights",
      "outputs": [
        {
          "name": "name",
          "type": "string"
        },
        {
          "name": "price",
          "type": "uint256"
        }
      ],
      "payable": false,
      "stateMutability": "view",
      "type": "function"
    },
    {
      "constant": true,
      "inputs": [
        {
          "name": "",
          "type": "address"
        }
      ],
      "name": "customers",
      "outputs": [
        {
          "name": "loyaltyPoints",
          "type": "uint256"
        },
        {
          "name": "totalFlights",
          "type": "uint256"
        }
      ],
      "payable": false,
      "stateMutability": "view",
      "type": "function"
    },
    {
      "constant": true,
      "inputs": [
        {
          "name": "",
          "type": "address"
        },
        {
          "name": "",
          "type": "uint256"
        }
      ],
      "name": "customerFlights",
      "outputs": [
        {
          "name": "name",
          "type": "string"
        },
        {
          "name": "price",
          "type": "uint256"
        }
      ],
      "payable": false,
      "stateMutability": "view",
      "type": "function"
    },
    {
      "constant": true,
      "inputs": [],
      "name": "owner",
      "outputs": [
        {
          "name": "",
          "type": "address"
        }
      ],
      "payable": false,
      "stateMutability": "view",
      "type": "function"
    },
    {
      "constant": true,
      "inputs": [
        {
          "name": "",
          "type": "address"
        }
      ],
      "name": "customerTotalFlights",
      "outputs": [
        {
          "name": "",
          "type": "uint256"
        }
      ],
      "payable": false,
      "stateMutability": "view",
      "type": "function"
    },
    {
      "inputs": [],
      "payable": false,
      "stateMutability": "nonpayable",
      "type": "constructor"
    },
    {
      "anonymous": false,
      "inputs": [
        {
          "indexed": true,
          "name": "customer",
          "type": "address"
        },
        {
          "indexed": false,
          "name": "price",
          "type": "uint256"
        },
        {
          "indexed": false,
          "name": "flight",
          "type": "string"
        }
      ],
      "name": "FlightPurchased",
      "type": "event"
    },
    {
      "constant": false,
      "inputs": [
        {
          "name": "flightIndex",
          "type": "uint256"
        }
      ],
      "name": "buyFlight",
      "outputs": [],
      "payable": true,
      "stateMutability": "payable",
      "type": "function"
    },
    {
      "constant": true,
      "inputs": [],
      "name": "totalFlights",
      "outputs": [
        {
          "name": "",
          "type": "uint256"
        }
      ],
      "payable": false,
      "stateMutability": "view",
      "type": "function"
    },
    {
      "constant": false,
      "inputs": [],
      "name": "redeemLoyaltyPoints",
      "outputs": [],
      "payable": false,
      "stateMutability": "nonpayable",
      "type": "function"
    },
    {
      "constant": true,
      "inputs": [],
      "name": "getRefundableEther",
      "outputs": [
        {
          "name": "",
          "type": "uint256"
        }
      ],
      "payable": false,
      "stateMutability": "view",
      "type": "function"
    },
    {
      "constant": true,
      "inputs": [],
      "name": "getAirlineBalance",
      "outputs": [
        {
          "name": "",
          "type": "uint256"
        }
      ],
      "payable": false,
      "stateMutability": "view",
      "type": "function"
    }
  ],
  "bytecode": "0x60806040526706f05b59d3b2000060015534801561001c57600080fd5b50336000806101000a81548173ffffffffffffffffffffffffffffffffffffffff021916908373ffffffffffffffffffffffffffffffffffffffff160217905550600260408051908101604052806040805190810160405280600581526020017f546f6b696f0000000000000000000000000000000000000000000000000000008152508152602001673782dace9d9000008152509080600181540180825580915050906001820390600052602060002090600202016000909192909190915060008201518160000190805190602001906100f892919061025d565b5060208201518160010155505050600260408051908101604052806040805190810160405280600981526020017f42617263656c6f6e61000000000000000000000000000000000000000000000081525081526020016729a2241af62c00008152509080600181540180825580915050906001820390600052602060002090600202016000909192909190915060008201518160000190805190602001906101a192919061025d565b5060208201518160010155505050600260408051908101604052806040805190810160405280600581526020017f447562616900000000000000000000000000000000000000000000000000000081525081526020016729a2241af62c000081525090806001815401808255809150509060018203906000526020600020906002020160009091929091909150600082015181600001908051906020019061024a92919061025d565b5060208201518160010155505050610302565b828054600181600116156101000203166002900490600052602060002090601f016020900481019282601f1061029e57805160ff19168380011785556102cc565b828001600101855582156102cc579182015b828111156102cb5782518255916020019190600101906102b0565b5b5090506102d991906102dd565b5090565b6102ff91905b808211156102fb5760008160009055506001016102e3565b5090565b90565b610aaf806103116000396000f3006080604052600436106100a4576000357c0100000000000000000000000000000000000000000000000000000000900463ffffffff1680630ca97e48146100a957806315ccf70f146100c95780632411ff731461017657806329cd30b4146101a1578063336989ae146101cc5780634bf02e7a1461022a57806381959427146102555780638da5cb5b14610322578063f269365a14610379578063f997114f146103d0575b600080fd5b6100c7600480360381019080803590602001909291905050506103e7565b005b3480156100d557600080fd5b506100f460048036038101908080359060200190929190505050610655565b6040518080602001838152602001828103825284818151815260200191508051906020019080838360005b8381101561013a57808201518184015260208101905061011f565b50505050905090810190601f1680156101675780820380516001836020036101000a031916815260200191505b50935050505060405180910390f35b34801561018257600080fd5b5061018b610720565b6040518082815260200191505060405180910390f35b3480156101ad57600080fd5b506101b661076e565b6040518082815260200191505060405180910390f35b3480156101d857600080fd5b5061020d600480360381019080803573ffffffffffffffffffffffffffffffffffffffff1690602001909291905050506107ed565b604051808381526020018281526020019250505060405180910390f35b34801561023657600080fd5b5061023f610811565b6040518082815260200191505060405180910390f35b34801561026157600080fd5b506102a0600480360381019080803573ffffffffffffffffffffffffffffffffffffffff1690602001909291908035906020019092919050505061081e565b6040518080602001838152602001828103825284818151815260200191508051906020019080838360005b838110156102e65780820151818401526020810190506102cb565b50505050905090810190601f1680156103135780820380516001836020036101000a031916815260200191505b50935050505060405180910390f35b34801561032e57600080fd5b506103376108f6565b604051808273ffffffffffffffffffffffffffffffffffffffff1673ffffffffffffffffffffffffffffffffffffffff16815260200191505060405180910390f35b34801561038557600080fd5b506103ba600480360381019080803573ffffffffffffffffffffffffffffffffffffffff16906020019092919050505061091b565b6040518082815260200191505060405180910390f35b3480156103dc57600080fd5b506103e5610933565b005b6000806002838154811015156103f957fe5b9060005260206000209060020201915081600101543414151561041b57600080fd5b600360003373ffffffffffffffffffffffffffffffffffffffff1673ffffffffffffffffffffffffffffffffffffffff16815260200190815260200160002090506005816000016000828254019250508190555060018160010160008282540192505081905550600460003373ffffffffffffffffffffffffffffffffffffffff1673ffffffffffffffffffffffffffffffffffffffff1681526020019081526020016000208290806001815401808255809150509060018203906000526020600020906002020160009091929091909150600082018160000190805460018160011615610100020316600290046105149291906109d7565b5060018201548160010155505050600560003373ffffffffffffffffffffffffffffffffffffffff1673ffffffffffffffffffffffffffffffffffffffff168152602001908152602001600020600081548092919060010191905055503373ffffffffffffffffffffffffffffffffffffffff167f1a02c9b180301ecb4108648e8e1cd231f2857cc169519367000f7380f57566c483600101548460000160405180838152602001806020018281038252838181546001816001161561010002031660029004815260200191508054600181600116156101000203166002900480156106415780601f1061061657610100808354040283529160200191610641565b820191906000526020600020905b81548152906001019060200180831161062457829003601f168201915b5050935050505060405180910390a2505050565b60028181548110151561066457fe5b9060005260206000209060020201600091509050806000018054600181600116156101000203166002900480601f0160208091040260200160405190810160405280929190818152602001828054600181600116156101000203166002900480156107105780601f106106e557610100808354040283529160200191610710565b820191906000526020600020905b8154815290600101906020018083116106f357829003601f168201915b5050505050908060010154905082565b6000600360003373ffffffffffffffffffffffffffffffffffffffff1673ffffffffffffffffffffffffffffffffffffffff1681526020019081526020016000206000015460015402905090565b6000806000809054906101000a900473ffffffffffffffffffffffffffffffffffffffff1673ffffffffffffffffffffffffffffffffffffffff163373ffffffffffffffffffffffffffffffffffffffff161415156107cc57600080fd5b3090508073ffffffffffffffffffffffffffffffffffffffff163191505090565b60036020528060005260406000206000915090508060000154908060010154905082565b6000600280549050905090565b60046020528160005260406000208181548110151561083957fe5b906000526020600020906002020160009150915050806000018054600181600116156101000203166002900480601f0160208091040260200160405190810160405280929190818152602001828054600181600116156101000203166002900480156108e65780601f106108bb576101008083540402835291602001916108e6565b820191906000526020600020905b8154815290600101906020018083116108c957829003601f168201915b5050505050908060010154905082565b6000809054906101000a900473ffffffffffffffffffffffffffffffffffffffff1681565b60056020528060005260406000206000915090505481565b600080600360003373ffffffffffffffffffffffffffffffffffffffff1673ffffffffffffffffffffffffffffffffffffffff168152602001908152602001600020915081600001546001540290503373ffffffffffffffffffffffffffffffffffffffff166108fc829081150290604051600060405180830381858888f193505050501580156109c8573d6000803e3d6000fd5b50600082600001819055505050565b828054600181600116156101000203166002900490600052602060002090601f016020900481019282601f10610a105780548555610a4d565b82800160010185558215610a4d57600052602060002091601f016020900482015b82811115610a4c578254825591600101919060010190610a31565b5b509050610a5a9190610a5e565b5090565b610a8091905b80821115610a7c576000816000905550600101610a64565b5090565b905600a165627a7a72305820b1dedb30fa77133d5a80c69770c85b78cc99a3cc49e23291ed4cbfb8c4dfbf170029",
  "source": "pragma solidity ^0.4.24;\n\ncontract Airline {\n\n    address public owner;\n\n    struct Customer{\n        uint loyaltyPoints;\n        uint totalFlights;\n    }\n\n    struct Flight {\n        string name;\n        uint256 price;\n    }\n\n    uint etherPerPoint = 0.5 ether;\n\n    Flight[] public flights;\n\n    mapping(address => Customer) public customers;\n    mapping(address => Flight[]) public customerFlights;\n    mapping(address => uint) public customerTotalFlights;\n\n    event FlightPurchased(address indexed customer, uint price, string flight);\n\n    constructor() {\n        owner = msg.sender;   \n        flights.push(Flight('Tokio', 4 ether ));\n        flights.push(Flight('Barcelona', 3 ether));\n        flights.push(Flight('Dubai', 3 ether));     \n    }\n\n    function buyFlight(uint flightIndex) public payable {\n        Flight flight = flights[flightIndex];\n        require(msg.value == flight.price);\n\n        Customer storage customer = customers[msg.sender];\n        customer.loyaltyPoints += 5;\n        customer.totalFlights += 1;\n        customerFlights[msg.sender].push(flight);\n        customerTotalFlights[msg.sender] ++; //Al ser un mapping de address a un nro entero, al monento de hacer customerTotalFlights[msg.sender] se accede a un numero y se puede incrementar de esta forma\n        \n        FlightPurchased(msg.sender, flight.price, flight.name);\n    }\n\n    function totalFlights() public view returns (uint) {\n        return flights.length;\n    }\n\n    function redeemLoyaltyPoints() public {\n        Customer storage customer = customers[msg.sender];\n        uint etherToRefund = etherPerPoint * customer.loyaltyPoints;\n        msg.sender.transfer(etherToRefund);\n        customer.loyaltyPoints = 0;\n    }\n\n    function getRefundableEther() public view returns (uint) {\n        return etherPerPoint * customers[msg.sender].loyaltyPoints;\n    }\n\n    function getAirlineBalance() public isOwner view returns (uint) {\n        address airlineAddress = this;\n        return airlineAddress.balance;\n    }\n\n    modifier isOwner() {\n        require(msg.sender == owner);\n        _;\n    }\n}",
  "sourcePath": "E:\\CURSOS\\ETH-SC\\udemy-ethereum-the-airline\\contracts\\Airline.sol",
  "compiler": {
    "name": "solc",
    "version": "0.4.24+commit.e67f0147.Emscripten.clang"
  },
  "schemaVersion": "2.0.1",
  "updatedAt": "2018-10-13T17:41:13.000Z"
}